:020000040800F2
:1000000000500020FD21000815050008210500080A
:10001000270500082D050008330500080000000032
:10002000000000000000000000000000390500088A
:100030004505000800000000510500085D050008A6
:1000400045220008452200084522000845220008F4
:1000500045220008452200084522000845220008E4
:1000600045220008452200084522000845220008D4
:1000700045220008452200084522000845220008C4
:1000800045220008452200084522000845220008B4
:1000900045220008452200084522000845220008A4
:1000A0004522000845220008452200084522000894
:1000B0004522000845220008452200084522000884
:1000C0004522000845220008452200084522000874
:1000D0004522000845220008452200084522000864
:1000E00045220008452200084522000800000000C3
:1000F0000000000000000000000000000000000000
:0C01000000000000000000005FF808F1A3
:10010C000348044B834202D0034B03B1184770479A
:10011C000C0000200C0000200000000005480649DF
:10012C00091A891001EBD171491002D0034B03B1AC
:10013C00184770470C0000200C0000200000000045
:10014C0010B5064C237843B9FFF7DAFF044B13B113
:10015C000448AFF300800123237010BD0C00002075
:10016C0000000000A022000808B5054B1BB1054992
:10017C000548AFF30080BDE80840FFF7CFBF00BFD4
:10018C000000000010000020A022000880B500AF85
:10019C0000F0FCFD00F088F800F0D2F800F034F923
:1001AC004FF40071384801F0B9FB03461A46374B3F
:1001BC001A7001220421364801F0C7FB00BF082148
:1001CC00334801F0ABFB0346002BF8D001F0C0FD27
:1001DC00002204212E4801F0B8FB00BF2D4B1B78E8
:1001EC00DBB2002B04D12C4B1B78DBB2002BF5D0EF
:1001FC0001220421264801F0A8FB00BF0821244855
:10020C0001F08CFB0346002BF8D0224B1B78DBB2A1
:10021C00002B27D01F4B00221A70204B1B68B3F504
:10022C00805F02D11D4B00221A601C4B1B68002BF7
:10023C0004D1164B1B78184601F046FE184B1B7860
:10024C00DAB2124B1B781B031946144B1B680B4478
:10025C001946104601F0A0FE104B1B6801330F4AE3
:10026C0013600BE00C4B00221A70084B1B781946DC
:10027C004FF4805300220B4801F05AFF0022042156
:10028C00034801F062FBA8E7000C0140302000207D
:10029C00000801402C0000202E0000202800002027
:1002AC002D0000203010002080B590B000AF07F179
:1002BC00180328220021184601F0E4FF3B1D002200
:1002CC001A605A609A60DA601A610123BB614FF4BC
:1002DC008033FB6100233B620123BB6202237B63FF
:1002EC004FF48033BB634FF4E013FB6307F1180347
:1002FC00184600F0CFFD0346002B01D000F019F892
:10030C000F237B600223BB600023FB604FF48063F0
:10031C003B6100237B613B1D0221184601F03AF83A
:10032C000346002B01D000F004F800BF4037BD4657
:10033C0080BD80B400AF00BFBD4680BC70470000DC
:10034C0080B588B000AF07F1100300221A605A6024
:10035C009A60DA60294B9B69284A43F02003936129
:10036C00264B9B6903F02003FB60FB68234B9B69C6
:10037C00224A43F004039361204B9B6903F004036E
:10038C00BB60BB681D4B9B691C4A43F0080393611F
:10039C001A4B9B6903F008037B607B6800221421D5
:1003AC00174801F0D2FA14233B6101237B6100232F
:1003BC00BB610223FB6107F110031946104801F0E1
:1003CC0053F908233B6100237B610023BB6107F1D8
:1003DC00100319460A4801F047F94FF400733B61CA
:1003EC0000237B610023BB6107F11003194605480C
:1003FC0001F03AF900BF2037BD4680BD0010024025
:10040C0000080140000C014080B500AF174B184AA2
:10041C001A60164B4FF482725A60144B00229A6089
:10042C00124B0022DA60114B00221A610F4B002292
:10043C005A610E4B4FF400729A610C4B1022DA6128
:10044C000A4B00221A62094B00225A62074B002207
:10045C009A62064B0A22DA62044800F0B1F80346AD
:10046C00002B01D0FFF765FF00BF80BD34200020BA
:10047C000030014080B588B000AF786007F1100300
:10048C0000221A605A609A60DA607B681B681B4A0B
:10049C0093422FD11A4B9B69194A43F480539361B1
:1004AC00174B9B6903F48053FB60FB68144B9B69EF
:1004BC00134A43F004039361114B9B6903F004034B
:1004CC00BB60BB68A0233B6102237B610323FB6100
:1004DC0007F1100319460B4801F0C6F840233B61A5
:1004EC0000237B610023BB6107F11003194605480B
:1004FC0001F0BAF800BF2037BD4680BD0030014086
:10050C00001002400008014080B400AF00BFBD469F
:10051C0080BC704780B400AFFEE780B400AFFEE74C
:10052C0080B400AFFEE780B400AFFEE780B400AF4C
:10053C0000BFBD4680BC704780B400AF00BFBD4655
:10054C0080BC704780B400AF00BFBD4680BC704714
:10055C0080B500AF00F060FC00BF80BD80B485B0FA
:10056C0000AF154B9B69144A43F001039361124B86
:10057C009B6903F00103BB60BB680F4BDB690E4A40
:10058C0043F08053D3610C4BDB6903F080537B60E9
:10059C007B680A4B5B68FB60FB6823F0E063FB60E5
:1005AC00FB6843F00073FB60044AFB68536000BFB8
:1005BC001437BD4680BC704700100240000001405B
:1005CC0080B582B000AF78607B68002B01D101232D
:1005DC0053E07B6800229A627B6893F85130DBB25F
:1005EC00002B06D17B68002283F850207868FFF737
:1005FC0041FF7B68022283F851207B681B681A68D4
:10060C007B681B6822F040021A607B685A687B6822
:10061C009B681A437B68DB681A437B681B691A4327
:10062C007B685B691A437B689B6903F400731A430C
:10063C007B68DB691A437B681B6A42EA03017B68AF
:10064C009A6A7B681B680A431A607B689B691A0C60
:10065C007B681B6802F004025A607B681B68DA69CD
:10066C007B681B6822F40062DA617B6800225A65A1
:10067C007B68012283F85120002318460837BD46B9
:10068C0080BD80B588B002AFF860B9603B6013469E
:10069C00FB800023FB75FB685B68B3F5827F12D18E
:1006AC00FB689B68002B0ED1FB68042283F8512059
:1006BC00FA883B6800931346BA68B968F86800F08A
:1006CC00E9F80346E2E0FB6893F85030012B01D1C6
:1006DC000223DBE0FB68012283F8502000F0AEFB24
:1006EC003861FB6893F85130DBB2012B02D0022346
:1006FC00FB75C2E0BB68002B02D0FB88002B02D13B
:10070C000123FB75B9E0FB68042283F85120FB68D8
:10071C0000225A65FB68BA689A63FB68FA889A8764
:10072C00FB68FA88DA87FB6800221A63FB680022F0
:10073C009A86FB680022DA86FB6800221A64FB6842
:10074C0000225A64FB689B68B3F5004F07D1FB6825
:10075C001B681A68FB681B6822F480421A60FB68ED
:10076C001B681B6803F04003402B07D0FB681B6819
:10077C001A68FB681B6842F040021A60FB68DB6871
:10078C00002B62D12EE0FB681B689B6803F0010311
:10079C00012B15D1FB681B6803F10C02FB689B6BEA
:1007AC001278D2B21A70FB689B6B5A1CFB689A6366
:1007BC00FB68DB8F9BB2013B9AB2FB68DA8711E0D6
:1007CC0000F03CFB02463B69D31A3A689A4203D8C4
:1007DC003B68B3F1FF3F02D13B68002B02D10323EE
:1007EC00FB754AE0FB68DB8F9BB2002BCBD131E071
:1007FC00FB681B689B6803F00103012B13D1FB689A
:10080C001B68DA68FB689B6B92B21A80FB689B6B67
:10081C009A1CFB689A63FB68DB8F9BB2013B9AB214
:10082C00FB68DA8711E000F009FB02463B69D31A3A
:10083C003A689A4203D83B68B3F1FF3F02D13B6858
:10084C00002B02D10323FB7517E0FB68DB8F9BB2F7
:10085C00002BCDD13A693968F86800F027FA0346C5
:10086C00002B02D0FB6820225A65FB685B6D002BC5
:10087C0002D00123FB7500E000BFFB68012283F866
:10088C005120FB68002283F85020FB7D1846183756
:10089C00BD4680BD80B58CB000AFF860B9607A60A1
:1008AC007B800123FB62002387F82B30FB6893F8D5
:1008BC005030012B01D102238AE1FB68012283F81D
:1008CC00502000F0BBFA7862FB6893F8513087F83F
:1008DC002330FB685B68FB617B887B8397F8233054
:1008EC00012B0FD0FB69B3F5827F07D1FB689B68A6
:1008FC00002B03D197F82330042B03D0022387F865
:10090C002B305BE1BB68002B05D07B68002B02D041
:10091C007B88002B03D1012387F82B304EE1FB6839
:10092C0093F85130DBB2042B03D0FB68052283F81B
:10093C005120FB6800225A65FB687A689A63FB6851
:10094C007A88DA87FB687A889A87FB68BA681A63B0
:10095C00FB687A88DA86FB687A889A86FB680022BC
:10096C001A64FB6800225A64FB681B681B6803F05E
:10097C004003402B07D0FB681B681A68FB681B6898
:10098C0042F040021A60FB68DB68B3F5006F78D167
:10099C00FB685B68002B02D07B8B012B66D1FB685C
:1009AC001B6B1A88FB681B68DA60FB681B6B9A1C54
:1009BC00FB681A63FB68DB8E9BB2013B9AB2FB6847
:1009CC00DA8653E0FB681B689B6803F00203022B7A
:1009DC001BD1FB68DB8E9BB2002B16D0FB6A012B64
:1009EC0013D1FB681B6B1A88FB681B68DA60FB6809
:1009FC001B6B9A1CFB681A63FB68DB8E9BB2013B7A
:100A0C009AB2FB68DA860023FB62FB681B689B6862
:100A1C0003F00103012B19D1FB68DB8F9BB2002B78
:100A2C0014D0FB681B68DA68FB689B6B92B21A8067
:100A3C00FB689B6B9A1CFB689A63FB68DB8F9BB211
:100A4C00013B9AB2FB68DA870123FB6200F0F6F9EE
:100A5C0002467B6AD31ABA6B9A4207D8BB6BB3F1C6
:100A6C00FF3F03D0032387F82B30A7E0FB68DB8E16
:100A7C009BB2002BA6D1FB68DB8F9BB2002BA1D1C4
:100A8C007CE0FB685B68002B02D07B8B012B6BD16D
:100A9C00FB681A6BFB681B680C3312781A70FB68C6
:100AAC001B6B5A1CFB681A63FB68DB8E9BB2013B09
:100ABC009AB2FB68DA8657E0FB681B689B6803F008
:100ACC000203022B1CD1FB68DB8E9BB2002B17D0D0
:100ADC00FB6A012B14D1FB681A6BFB681B680C3387
:100AEC0012781A70FB681B6B5A1CFB681A63FB6844
:100AFC00DB8E9BB2013B9AB2FB68DA860023FB6269
:100B0C00FB681B689B6803F00103012B19D1FB6880
:100B1C00DB8F9BB2002B14D0FB681B68DA68FB6878
:100B2C009B6BD2B21A70FB689B6B5A1CFB689A6366
:100B3C00FB68DB8F9BB2013B9AB2FB68DA8701231F
:100B4C00FB6200F07BF902467B6AD31ABA6B9A42BD
:100B5C0003D8BB6BB3F1FF3F02D1BB6B002B03D1AE
:100B6C00032387F82B3029E0FB68DB8E9BB2002B2C
:100B7C00A2D1FB68DB8F9BB2002B9DD17A6AB96B3B
:100B8C00F86800F0E5F80346002B06D0012387F83F
:100B9C002B30FB6820225A6510E0FB689B68002B09
:100BAC000BD100237B61FB681B68DB687B61FB68F6
:100BBC001B689B687B617B6900E000BFFB680122BE
:100BCC0083F85120FB68002283F8502097F82B30D3
:100BDC0018463037BD4680BD80B584B000AFF86094
:100BEC00B9603B601346FB714CE03B68B3F1FF3FCF
:100BFC0048D000F023F90246BB69D31A3A689A42EE
:100C0C0002D93B68002B3DD1FB681B685A68FB6816
:100C1C001B6822F0E0025A60FB685B68B3F5827FC8
:100C2C0011D1FB689B68B3F5004F04D0FB689B683F
:100C3C00B3F5806F07D1FB681B681A68FB681B68EB
:100C4C0022F040021A60FB689B6AB3F5005F0FD17B
:100C5C00FB681B681A68FB681B6822F400521A6058
:100C6C00FB681B681A68FB681B6842F400521A6028
:100C7C00FB68012283F85120FB68002283F8502086
:100C8C0003230FE0FB681B689A68BB681340BA68C3
:100C9C009A420CBF01230023DBB21A46FB799A421D
:100CAC00A3D1002318461037BD4680BD80B586B051
:100CBC0002AFF860B9607A60FB685B68B3F5827F5D
:100CCC0011D1FB689B68B3F5004F04D0FB689B689F
:100CDC00B3F5806F07D1FB681B681A68FB681B684B
:100CEC0022F040021A60FB685B68B3F5827F17D173
:100CFC00FB689B68B3F5806F12D17B680093BB686F
:100D0C0000220121F868FFF767FF0346002B1AD079
:100D1C00FB685B6D43F02002FB685A65032313E00C
:100D2C007B680093BB6800228021F868FFF754FFB2
:100D3C000346002B07D0FB685B6D43F02002FB6879
:100D4C005A65032300E0002318461037BD4680BDCA
:100D5C0080B586B002AFF860B9607A607B680093AA
:100D6C00BB6800228021F868FFF736FF0346002B92
:100D7C0007D0FB685B6D43F02002FB685A650323C8
:100D8C0000E0002318461037BD4680BD80B500AF8B
:100D9C00084B1B68074A43F010031360032000F054
:100DAC009DFE002000F008F8FFF7D8FB0023184642
:100DBC0080BD00BF0020024080B582B000AF7860DB
:100DCC00124B1A68124B1B7819464FF47A73B3FB0B
:100DDC00F1F3B2FBF3F3184600F0A7FE0346002B29
:100DEC0001D001230EE07B680F2B0AD80022796812
:100DFC004FF0FF3000F07DFE064A7B681360002345
:100E0C0000E0012318460837BD4680BD08000020CD
:100E1C00040000200000002080B400AF054B1B78BC
:100E2C001A46054B1B681344034A136000BFBD46AA
:100E3C0080BC7047040000208C20002080B400AFE0
:100E4C00024B1B681846BD4680BC70478C200020A6
:100E5C0080B584B000AF7860FFF7F0FFB8607B68B6
:100E6C00FB60FB68B3F1FF3F05D0094B1B781A46BA
:100E7C00FB681344FB6000BFFFF7E0FF0246BB6852
:100E8C00D31AFA689A42F7D800BF1037BD4680BD16
:100E9C000400002080B586B000AF78607B68002B22
:100EAC0001D101236CE27B681B6803F00103002B6A
:100EBC0000F08780924B5B6803F00C03042B0CD082
:100ECC008F4B5B6803F00C03082B12D18C4B5B68C7
:100EDC0003F48033B3F5803F0BD1894B1B6803F4CB
:100EEC000033002B6CD07B685B68002B68D101232E
:100EFC0046E27B685B68B3F5803F06D1804B1B688C
:100F0C007F4A43F4803313602EE07B685B68002BD0
:100F1C000CD17B4B1B687A4A23F480331360784BDB
:100F2C001B68774A23F4802313601DE07B685B68A1
:100F3C00B3F5A02F0CD1724B1B68714A43F480237C
:100F4C0013606F4B1B686E4A43F4803313600BE0E5
:100F5C006B4B1B686A4A23F480331360684B1B6825
:100F6C00674A23F4802313607B685B68002B13D0E3
:100F7C00FFF764FF386108E0FFF760FF02463B694A
:100F8C00D31A642B01D90323FAE15D4B1B6803F4DC
:100F9C000033002BF0D014E0FFF750FF386108E06D
:100FAC00FFF74CFF02463B69D31A642B01D903238C
:100FBC00E6E1534B1B6803F40033002BF0D100E047
:100FCC0000BF7B681B6803F00203002B63D04C4B03
:100FDC005B6803F00C03002B0BD0494B5B6803F0F0
:100FEC000C03082B1CD1464B5B6803F48033002B9D
:100FFC0016D1434B1B6803F00203002B05D07B6812
:10100C001B69012B01D00123BAE13D4B1B6823F076
:10101C00F8027B685B69DB00394913430B603AE0EB
:10102C007B681B69002B20D0364B01221A60FFF71E
:10103C0005FF386108E0FFF701FF02463B69D31A50
:10104C00022B01D903239BE12D4B1B6803F00203F8
:10105C00002BF0D02A4B1B6823F0F8027B685B69ED
:10106C00DB00274913430B6015E0264B00221A6066
:10107C00FFF7E4FE386108E0FFF7E0FE02463B694B
:10108C00D31A022B01D903237AE11D4B1B6803F001
:10109C000203002BF0D17B681B6803F00803002BC4
:1010AC003AD07B689B69002B19D0174B01221A6030
:1010BC00FFF7C4FE386108E0FFF7C0FE02463B694B
:1010CC00D31A022B01D903235AE10D4B5B6A03F0AF
:1010DC000203002BF0D0012000F0A8FA1CE00A4B10
:1010EC0000221A60FFF7AAFE38610FE0FFF7A6FE98
:1010FC0002463B69D31A022B08D9032340E100BFF7
:10110C000010024000004242800442429E4B5B6A47
:10111C0003F00203002BE9D17B681B6803F0040386
:10112C00002B00F0A6800023FB75974BDB6903F0C6
:10113C008053002B0DD1944BDB69934A43F08053C1
:10114C00D361914BDB6903F08053BB60BB68012317
:10115C00FB758E4B1B6803F48073002B18D18B4BE3
:10116C001B688A4A43F480731360FFF767FE38618B
:10117C0008E0FFF763FE02463B69D31A642B01D9E2
:10118C000323FDE0814B1B6803F48073002BF0D02C
:10119C007B68DB68012B06D17B4B1B6A7A4A43F0D8
:1011AC00010313622DE07B68DB68002B0CD1764BBE
:1011BC001B6A754A23F001031362734B1B6A724A54
:1011CC0023F0040313621CE07B68DB68052B0CD155
:1011DC006D4B1B6A6C4A43F0040313626A4B1B6A27
:1011EC00694A43F0010313620BE0674B1B6A664AC2
:1011FC0023F001031362644B1B6A634A23F004035C
:10120C0013627B68DB68002B15D0FFF717FE386183
:10121C000AE0FFF713FE02463B69D31A41F288320B
:10122C00934201D90323ABE0574B1B6A03F0020333
:10123C00002BEED014E0FFF701FE38610AE0FFF757
:10124C00FDFD02463B69D31A41F28832934201D923
:10125C00032395E04C4B1B6A03F00203002BEED1E9
:10126C00FB7D012B05D1484BDB69474A23F08053AA
:10127C00D3617B68DB69002B00F08180424B5B689B
:10128C0003F00C03082B61D07B68DB69022B46D181
:10129C003F4B00221A60FFF7D1FD386108E0FFF7E1
:1012AC00CDFD02463B69D31A022B01D9032367E01B
:1012BC00354B1B6803F00073002BF0D17B681B6A65
:1012CC00B3F5803F08D1304B5B6823F400327B6868
:1012DC009B682D4913434B602B4B5B6823F47412B2
:1012EC007B68196A7B685B6A0B43274913434B6025
:1012FC00274B01221A60FFF7A1FD386108E0FFF7C8
:10130C009DFD02463B69D31A022B01D9032337E01A
:10131C001D4B1B6803F00073002BF0D02FE01C4B0F
:10132C0000221A60FFF78AFD386108E0FFF786FD9E
:10133C0002463B69D31A022B01D9032320E0124B3E
:10134C001B6803F00073002BF0D118E07B68DB699D
:10135C00012B01D1012313E00B4B5B68FB60FB6895
:10136C0003F480327B681B6A9A4206D1FB6803F453
:10137C0070127B685B6A9A4201D0012300E0002363
:10138C0018461837BD4680BD001002400070004062
:10139C006000424280B584B000AF786039607B68F1
:1013AC00002B01D10123D0E06A4B1B6803F007032B
:1013BC003A689A4210D9674B1B6823F007026549BB
:1013CC003B6813430B60634B1B6803F007033A68DD
:1013DC009A4201D00123B8E07B681B6803F002033A
:1013EC00002B20D07B681B6803F00403002B05D076
:1013FC00594B5B68584A43F4E06353607B681B6845
:10140C0003F00803002B05D0534B5B68524A43F49E
:10141C0060535360504B5B6823F0F0027B689B6811
:10142C004D4913434B607B681B6803F00103002B91
:10143C0040D07B685B68012B07D1474B1B6803F4DA
:10144C000033002B15D101237FE07B685B68022BF6
:10145C0007D1414B1B6803F00073002B09D101230A
:10146C0073E03D4B1B6803F00203002B01D10123F9
:10147C006BE0394B5B6823F003027B685B68364991
:10148C0013434B60FFF7DAFCF8600AE0FFF7D6FC79
:10149C000246FB68D31A41F28832934201D90323E6
:1014AC0053E02D4B5B6803F00C027B685B689B0080
:1014BC009A42EBD1274B1B6803F007033A689A4218
:1014CC0010D2244B1B6823F0070222493B681343BC
:1014DC000B60204B1B6803F007033A689A4201D05B
:1014EC00012332E07B681B6803F00403002B08D057
:1014FC00194B5B6823F4E0627B68DB681649134385
:10150C004B607B681B6803F00803002B09D0124B5F
:10151C005B6823F460527B681B69DB000E49134344
:10152C004B6000F021F801460B4B5B681B0903F084
:10153C000F030A4AD35C21FA03F3094A1360094BDF
:10154C001B681846FFF738FC002318461037BD46B9
:10155C0080BD00BF0020024000100240CC220008D9
:10156C00080000200000002090B48AB000AF2A4B85
:10157C003C1D0FCB84E80F00284B1B883B800023BD
:10158C00FB610023BB6100237B6200237B61002392
:10159C003B62234B5B68FB61FB6903F00C03042B80
:1015AC0002D0082B03D02DE01E4B3B622DE0FB69D3
:1015BC009B0C03F00F0307F12802134413F8243C8F
:1015CC007B61FB6903F48033002B13D0144B5B68F5
:1015DC005B0C03F0010307F12802134413F8283CB9
:1015EC00BB617B690F4A02FB03F2BB69B2FBF3F3ED
:1015FC007B6204E07B690C4A02FB03F37B627B6A2F
:10160C003B6202E0074B3B6200BF3B6A184628373F
:10161C00BD4690BC704700BFB8220008C822000825
:10162C000010024000127A0000093D0080B485B021
:10163C0000AF78600A4B1B680A4AA2FB03235B0AC3
:10164C007A6802FB03F3FB6000BFFB685A1EFA606A
:10165C00002BF9D100BF1437BD4680BC704700BFCA
:10166C0008000020D34D621080B48BB000AF7860BE
:10167C00396000237B6200233B6227E101227B6AF5
:10168C0002FA03F3FB613B681B68FA691340BB6108
:10169C00BA69FB699A4240F016813B685B68122B71
:1016AC0034D0122B0DD8022B2BD0022B04D8002BAC
:1016BC0031D0012B1CD048E0032B43D0112B1BD075
:1016CC0043E0894A934226D0874A934206D8874AF8
:1016DC00934220D0864A93421DD036E0854A9342ED
:1016EC0019D0854A934216D0844A934213D02CE0E9
:1016FC003B68DB683B6228E03B68DB6804333B6299
:10170C0023E03B68DB6808333B621EE03B68DB6828
:10171C000C333B6219E03B689B68002B02D104231D
:10172C003B6212E03B689B68012B05D108233B62AE
:10173C007B68FA691A6108E008233B627B68FA69E6
:10174C005A6102E000233B6200BFBB69FF2B01D84A
:10175C007B6801E07B6804337B61BB69FF2B02D89B
:10176C007B6A9B0002E07B6A083B9B003B617B69C8
:10177C001A680F213B6901FA03F3DB431A40396AFB
:10178C003B6901FA03F31A437B691A603B685B6897
:10179C0003F08053002B00F09680594B9B69584AFC
:1017AC0043F001039361564B9B6903F00103BB604B
:1017BC00BB68544A7B6A9B08023352F82330FB60A7
:1017CC007B6A03F003039B000F2202FA03F3DB4353
:1017DC00FA681340FB607B684B4A934213D07B68DA
:1017EC004A4A93420DD07B68494A934207D07B68A2
:1017FC00484A934201D1032306E0042304E0022368
:10180C0002E0012300E000237A6A02F00302920056
:10181C009340FA681343FB603A497B6A9B08023396
:10182C00FA6841F823203B685B6803F48033002B93
:10183C0006D0394B1A683849BB6913430B6006E074
:10184C00354B1A68BB69DB43334913400B603B686B
:10185C005B6803F40033002B06D02F4B5A682E49DB
:10186C00BB6913434B6006E02B4B5A68BB69DB43E7
:10187C00294913404B603B685B6803F48013002BD1
:10188C0006D0254B9A682449BB6913438B6006E04C
:10189C00214B9A68BB69DB431F4913408B603B6843
:1018AC005B6803F40013002B06D01B4BDA681A4953
:1018BC00BB691343CB6006E0174BDA68BB69DB43AB
:1018CC0015491340CB607B6A01337B623B681A6815
:1018DC007B6A22FA03F3002B7FF4D0AE00BF2C37C7
:1018EC00BD4680BC704700BF0000211000001110E5
:1018FC000000121000003110000032100000221005
:10190C00001002400000014000080140000C0140A2
:10191C0000100140001401400004014080B485B067
:10192C0000AF78600B467B807B689A687B8813409D
:10193C00002B02D00123FB7301E00023FB73FB7B24
:10194C0018461437BD4680BC704780B483B000AFD6
:10195C0078600B467B8013467B707B78002B03D022
:10196C007A887B681A6103E07B881A047B681A61A9
:10197C0000BF0C37BD4680BC7047000080B485B0FA
:10198C0000AF78607B6803F00703FB600C4BDB68EF
:10199C00BB60BA684FF6FF031340BB60FB681A02CA
:1019AC00BB68134343F0BF6343F40033BB60044A8A
:1019BC00BB68D36000BF1437BD4680BC704700BF06
:1019CC0000ED00E080B400AF044BDB681B0A03F0B1
:1019DC0007031846BD4680BC704700BF00ED00E011
:1019EC0080B483B000AF03463960FB7197F90730C0
:1019FC00002B0ADB3B68DAB20C4997F9073012016D
:101A0C00D2B20B4483F800230AE03B68DAB20849EF
:101A1C00FB7903F00F03043B1201D2B20B441A768C
:101A2C0000BF0C37BD4680BC704700BF00E100E032
:101A3C0000ED00E080B489B000AFF860B9607A6066
:101A4C00FB6803F00703FB61FB69C3F10703042B7D
:101A5C0028BF0423BB61FB690433062B02D9FB6945
:101A6C00033B00E000237B614FF0FF32BB6902FABD
:101A7C0003F3DA43BB681A407B699A404FF0FF319D
:101A8C007B6901FA03F3D9437B680B401343184677
:101A9C002437BD4680BC704780B582B000AF7860FB
:101AAC007B68013BB3F1807F01D301230FE00A4A2D
:101ABC007B68013B53600F214FF0FF30FFF790FF25
:101ACC00054B00229A60044B07221A60002318462B
:101ADC000837BD4680BD00BF10E000E080B582B085
:101AEC0000AF78607868FFF749FF00BF0837BD4644
:101AFC0080BD80B586B000AF0346B9607A60FB73D9
:101B0C0000237B61FFF75EFF78617A68B9687869BA
:101B1C00FFF790FF024697F90F3011461846FFF772
:101B2C005FFF00BF1837BD4680BD80B582B000AFE7
:101B3C0078607868FFF7B0FF034618460837BD4653
:101B4C0080BD000080B400AF154B1B68144A43F0F5
:101B5C0001031360124B5A681149124B13404B602E
:101B6C000F4B1B680E4A23F0847323F480331360ED
:101B7C000B4B1B680A4A23F480231360084B5B68E9
:101B8C00074A23F4FE035360054B4FF41F029A607F
:101B9C00054B4FF000629A6000BFBD4680BC704799
:101BAC00001002400000FFF800ED00E080B586B0A8
:101BBC0002AF0346FB7107F10F02F91D642300937A
:101BCC0001230448FEF766FEFB7B18461037BD4622
:101BDC0080BD00BF3420002090B583B000AF002240
:101BEC0010211648FFF7B1FE4B20FFF7DFFF002353
:101BFC00FB7105E0A520FFF7D9FFFB790133FB71E1
:101C0C00FB79032BF6D90023BB710BE0BC79A52023
:101C1C00FFF7CCFF03461A46094B23445A70BB7995
:101C2C000133BB71BB79072BF0D90122102103487A
:101C3C00FFF78BFE00BF0C37BD4690BD000801407E
:101C4C009020002080B500AF002210210748FFF73C
:101C5C007CFE0620FFF7AAFF012210210348FFF7A4
:101C6C0074FE0120FFF7F4F800BF80BD00080140AE
:101C7C0080B584B000AF0346FB710023FB730022D8
:101C8C0010211C48FFF761FEFB79012B0CD10520BC
:101C9C00FFF78CFFA520FFF789FF0346FB73164A5D
:101CAC00FB7B82F824301BE0FB79022B0CD1352016
:101CBC00FFF77CFFA520FFF779FF0346FB730E4A65
:101CCC00FB7B82F825300BE01520FFF76FFFA5207A
:101CDC00FFF76CFF0346FB73074AFB7B82F8263049
:101CEC00012210210348FFF730FEFB7B184610370A
:101CFC00BD4680BD000801409020002080B500AF9B
:101D0C000120FFF7A5F8002210210F48FFF71DFE58
:101D1C000520FFF74BFFA520FFF748FF03461A46A7
:101D2C000A4B83F824200120FFF792F8074B93F815
:101D3C00243003F00103002BEDD1012210210248C5
:101D4C00FFF703FE00BF80BD00080140902000207B
:101D5C0080B582B000AF5A4B012283F827200122B4
:101D6C0010215848FFF7F1FD44F218037B607B68A3
:101D7C009BB2A3F58043113B092B60D801A252F80A
:101D8C0023F000BF3D1E00082F1E0008211E000876
:101D9C00131E0008051E0008F71D0008E91D0008A9
:101DAC00D91D0008C91D0008B91D0008444B0A22A2
:101DBC001A70434B4FF48062DA6146E0404B0922C3
:101DCC001A703F4B4FF40072DA613EE03C4B082234
:101DDC001A703B4B4FF48072DA6136E0384B0722B5
:101DEC001A70374B8022DA612FE0354B06221A70BD
:101DFC00334B4022DA6128E0314B05221A70304B0C
:101E0C002022DA6121E02E4B04221A702C4B102276
:101E1C00DA611AE02A4B03221A70294B0822DA6184
:101E2C0013E0274B02221A70254B0422DA610CE0D6
:101E3C00234B01221A70224B0222DA6105E0204B5F
:101E4C00002283F82720002336E01D4B4FF48072CC
:101E5C005A811B4B4FF480521A61194BDB691B01E1
:101E6C00174A5361164B5B69154A126902FB03F35F
:101E7C00134A5289B3FBF2F3114AD360104B1B691E
:101E8C001B010F4A93610E4B5B690D4A126902FBF1
:101E9C0003F39B0A0A4A1362FFF79EFE0120FFF729
:101EAC00E7FE0220FFF7E4FE0320FFF7E1FE044B00
:101EBC00002283F82720012318460837BD4680BD31
:101ECC00902000200008014080B582B000AF7860FF
:101EDC0002E00120FEF7BCFF234B93F82730012BC7
:101EEC00F7D0214B012283F82720FFF707FF1E4B69
:101EFC001A697B6802FB03F37B60FFF7A3FE0022E9
:101F0C0010211A48FFF721FD2020FFF74FFE164B3A
:101F1C001B78082B05D97B681B0EDBB21846FFF724
:101F2C0045FE7B681B0CDBB21846FFF73FFE7B6857
:101F3C001B0ADBB21846FFF739FE7B68DBB218468A
:101F4C00FFF734FE012210210848FFF7FEFCFFF7D3
:101F5C00D5FE0120FEF77CFF034B002283F82720DF
:101F6C0000BF0837BD4680BD90200020000801400E
:101F7C0080B483B000AF7860064B1B697A6802FBB3
:101F8C0003F3044A5289B3FBF2F318460C37BD46EF
:101F9C0080BC70479020002080B582B000AF034613
:101FAC003960FB7102E00120FEF752FF214B93F8E0
:101FBC002730012BF7D01F4B012283F82720FFF786
:101FCC009DFEFFF73FFE002210211B48FFF7BDFCD2
:101FDC000220FFF7EBFD174B1B78082B05D93B684C
:101FEC001B0EDBB21846FFF7E1FD3B681B0CDBB2A6
:101FFC001846FFF7DBFD3B681B0ADBB21846FFF700
:10200C00D5FD3B68DBB21846FFF7D0FDFB791846CF
:10201C00FFF7CCFD012210210748FFF796FCFFF7D4
:10202C006DFE044B002283F8272000BF0837BD4605
:10203C0080BD00BF902000200008014080B584B016
:10204C0000AFF860B9607A603B6002E00120FEF7F7
:10205C00FFFE344B93F82730012BF7D0314B012284
:10206C0083F827202F4B5B891A463B68934202D892
:10207C003B68002B02D12B4B5B893B607A683B6839
:10208C001344284A5289934205D9264B5B891A4638
:10209C007B68D31A3B60234B5B891A46BB6803FBF6
:1020AC0002F37A681344BB60002210211E48FFF72C
:1020BC004CFC0B20FFF77AFD1A4B1B78082B05D92B
:1020CC00BB681B0EDBB21846FFF770FDBB681B0C20
:1020DC00DBB21846FFF76AFDBB681B0ADBB2184679
:1020EC00FFF764FDBB68DBB21846FFF75FFD00200D
:1020FC00FFF75CFD3B689AB26423F9680B48FEF766
:10210C00C0FA012210210848FFF71FFC0120FEF73E
:10211C009FFE044B002283F8272000BF1037BD46DA
:10212C0080BD00BF9020002000080140342000201A
:10213C0080B588B000AFF860B9607A603B602B4B1B
:10214C001B693A689A4202D83B68002B02D1274B94
:10215C001B693B60254B1B697A689A4241D27A68AD
:10216C003B681A44214B1B699A4205D91F4B1A69CB
:10217C007B68D31ABB6101E03B68BB61B868FFF7B1
:10218C00F7FE0246194B5B8919467B68B3FBF1F3EA
:10219C001344FB61154B5B891A467B68B3FBF2F168
:1021AC0002FB01F29B1A7B61BB697A69F969F868D9
:1021BC00FFF744FFFB690133FB610C4B5B891A464B
:1021CC007B699A1ABB691344BB61084B5B891A463D
:1021DC00FB681344FB6000237B61BB69002BE3DCD1
:1021EC0000E000BF2037BD4680BD00BF902000201E
:1021FC00002103E00B4B5B58435004310A480B4B56
:10220C0042189A42F6D30A4A02E0002342F8043BF1
:10221C00084B9A42F9D3FFF795FC00F00FF8FDF745
:10222C00B5FF7047E4220008000000200C000020DD
:10223C000C000020B8200020FEE7000070B500263E
:10224C000C4D0D4C641BA410A64209D100F022F8D1
:10225C0000260A4D0A4C641BA410A64205D170BD81
:10226C0055F8043B98470136EEE755F8043B984780
:10227C000136F2E7DC220008DC220008DC22000830
:10228C00E022000803460244934200D1704703F851
:10229C00011BF9E7F8B500BFF8BC08BC9E467047B7
:0C22AC00F8B500BFF8BC08BC9E467047A7
:1022B80002030405060708090A0B0C0D0E0F10107F
:1022C80001020000000000000000000001020304F9
:0422D80006070809E4
:0422DC007501000880
:0422E0004D010008A4
:0C22E40010000000010000000024F400C5
:04000005080021FDD1
:00000001FF
